{
  "_format": "hh-sol-artifact-1",
  "contractName": "RealEstateToken",
  "sourceName": "contracts/RealEstateContract.sol",
  "abi": [
    {
      "inputs": [
        {
          "internalType": "address",
          "name": "defaultAdmin",
          "type": "address"
        }
      ],
      "stateMutability": "nonpayable",
      "type": "constructor"
    },
    {
      "inputs": [],
      "name": "AccessControlBadConfirmation",
      "type": "error"
    },
    {
      "inputs": [
        {
          "internalType": "address",
          "name": "account",
          "type": "address"
        },
        {
          "internalType": "bytes32",
          "name": "neededRole",
          "type": "bytes32"
        }
      ],
      "name": "AccessControlUnauthorizedAccount",
      "type": "error"
    },
    {
      "inputs": [],
      "name": "ERC721EnumerableForbiddenBatchMint",
      "type": "error"
    },
    {
      "inputs": [
        {
          "internalType": "address",
          "name": "sender",
          "type": "address"
        },
        {
          "internalType": "uint256",
          "name": "tokenId",
          "type": "uint256"
        },
        {
          "internalType": "address",
          "name": "owner",
          "type": "address"
        }
      ],
      "name": "ERC721IncorrectOwner",
      "type": "error"
    },
    {
      "inputs": [
        {
          "internalType": "address",
          "name": "operator",
          "type": "address"
        },
        {
          "internalType": "uint256",
          "name": "tokenId",
          "type": "uint256"
        }
      ],
      "name": "ERC721InsufficientApproval",
      "type": "error"
    },
    {
      "inputs": [
        {
          "internalType": "address",
          "name": "approver",
          "type": "address"
        }
      ],
      "name": "ERC721InvalidApprover",
      "type": "error"
    },
    {
      "inputs": [
        {
          "internalType": "address",
          "name": "operator",
          "type": "address"
        }
      ],
      "name": "ERC721InvalidOperator",
      "type": "error"
    },
    {
      "inputs": [
        {
          "internalType": "address",
          "name": "owner",
          "type": "address"
        }
      ],
      "name": "ERC721InvalidOwner",
      "type": "error"
    },
    {
      "inputs": [
        {
          "internalType": "address",
          "name": "receiver",
          "type": "address"
        }
      ],
      "name": "ERC721InvalidReceiver",
      "type": "error"
    },
    {
      "inputs": [
        {
          "internalType": "address",
          "name": "sender",
          "type": "address"
        }
      ],
      "name": "ERC721InvalidSender",
      "type": "error"
    },
    {
      "inputs": [
        {
          "internalType": "uint256",
          "name": "tokenId",
          "type": "uint256"
        }
      ],
      "name": "ERC721NonexistentToken",
      "type": "error"
    },
    {
      "inputs": [
        {
          "internalType": "address",
          "name": "owner",
          "type": "address"
        },
        {
          "internalType": "uint256",
          "name": "index",
          "type": "uint256"
        }
      ],
      "name": "ERC721OutOfBoundsIndex",
      "type": "error"
    },
    {
      "anonymous": false,
      "inputs": [
        {
          "indexed": true,
          "internalType": "address",
          "name": "owner",
          "type": "address"
        },
        {
          "indexed": true,
          "internalType": "address",
          "name": "approved",
          "type": "address"
        },
        {
          "indexed": true,
          "internalType": "uint256",
          "name": "tokenId",
          "type": "uint256"
        }
      ],
      "name": "Approval",
      "type": "event"
    },
    {
      "anonymous": false,
      "inputs": [
        {
          "indexed": true,
          "internalType": "address",
          "name": "owner",
          "type": "address"
        },
        {
          "indexed": true,
          "internalType": "address",
          "name": "operator",
          "type": "address"
        },
        {
          "indexed": false,
          "internalType": "bool",
          "name": "approved",
          "type": "bool"
        }
      ],
      "name": "ApprovalForAll",
      "type": "event"
    },
    {
      "anonymous": false,
      "inputs": [
        {
          "indexed": false,
          "internalType": "uint256",
          "name": "newRate",
          "type": "uint256"
        }
      ],
      "name": "CommissionRateChanged",
      "type": "event"
    },
    {
      "anonymous": false,
      "inputs": [
        {
          "indexed": true,
          "internalType": "uint256",
          "name": "tokenId",
          "type": "uint256"
        },
        {
          "indexed": true,
          "internalType": "address",
          "name": "liker",
          "type": "address"
        },
        {
          "indexed": false,
          "internalType": "bool",
          "name": "liked",
          "type": "bool"
        }
      ],
      "name": "PropertyLiked",
      "type": "event"
    },
    {
      "anonymous": false,
      "inputs": [
        {
          "indexed": true,
          "internalType": "uint256",
          "name": "tokenId",
          "type": "uint256"
        },
        {
          "indexed": true,
          "internalType": "address",
          "name": "owner",
          "type": "address"
        },
        {
          "indexed": false,
          "internalType": "string",
          "name": "name",
          "type": "string"
        },
        {
          "indexed": false,
          "internalType": "string",
          "name": "location",
          "type": "string"
        }
      ],
      "name": "PropertyMinted",
      "type": "event"
    },
    {
      "anonymous": false,
      "inputs": [
        {
          "indexed": true,
          "internalType": "uint256",
          "name": "tokenId",
          "type": "uint256"
        },
        {
          "indexed": true,
          "internalType": "address",
          "name": "tenant",
          "type": "address"
        },
        {
          "indexed": false,
          "internalType": "uint256",
          "name": "rentPrice",
          "type": "uint256"
        },
        {
          "indexed": false,
          "internalType": "uint256",
          "name": "duration",
          "type": "uint256"
        }
      ],
      "name": "PropertyRented",
      "type": "event"
    },
    {
      "anonymous": false,
      "inputs": [
        {
          "indexed": true,
          "internalType": "uint256",
          "name": "tokenId",
          "type": "uint256"
        },
        {
          "indexed": true,
          "internalType": "address",
          "name": "from",
          "type": "address"
        },
        {
          "indexed": true,
          "internalType": "address",
          "name": "to",
          "type": "address"
        },
        {
          "indexed": false,
          "internalType": "uint256",
          "name": "price",
          "type": "uint256"
        }
      ],
      "name": "PropertySold",
      "type": "event"
    },
    {
      "anonymous": false,
      "inputs": [
        {
          "indexed": true,
          "internalType": "uint256",
          "name": "tokenId",
          "type": "uint256"
        },
        {
          "indexed": false,
          "internalType": "uint8",
          "name": "status",
          "type": "uint8"
        },
        {
          "indexed": false,
          "internalType": "uint256",
          "name": "price",
          "type": "uint256"
        },
        {
          "indexed": false,
          "internalType": "uint256",
          "name": "rentalEndDate",
          "type": "uint256"
        }
      ],
      "name": "PropertyUpdated",
      "type": "event"
    },
    {
      "anonymous": false,
      "inputs": [
        {
          "indexed": true,
          "internalType": "uint256",
          "name": "tokenId",
          "type": "uint256"
        },
        {
          "indexed": false,
          "internalType": "bool",
          "name": "verified",
          "type": "bool"
        }
      ],
      "name": "PropertyVerified",
      "type": "event"
    },
    {
      "anonymous": false,
      "inputs": [
        {
          "indexed": true,
          "internalType": "uint256",
          "name": "tokenId",
          "type": "uint256"
        },
        {
          "indexed": true,
          "internalType": "address",
          "name": "tenant",
          "type": "address"
        }
      ],
      "name": "RentalEnded",
      "type": "event"
    },
    {
      "anonymous": false,
      "inputs": [
        {
          "indexed": true,
          "internalType": "uint256",
          "name": "reviewId",
          "type": "uint256"
        },
        {
          "indexed": true,
          "internalType": "uint256",
          "name": "propertyId",
          "type": "uint256"
        },
        {
          "indexed": true,
          "internalType": "address",
          "name": "reviewer",
          "type": "address"
        }
      ],
      "name": "ReviewAdded",
      "type": "event"
    },
    {
      "anonymous": false,
      "inputs": [
        {
          "indexed": true,
          "internalType": "bytes32",
          "name": "role",
          "type": "bytes32"
        },
        {
          "indexed": true,
          "internalType": "bytes32",
          "name": "previousAdminRole",
          "type": "bytes32"
        },
        {
          "indexed": true,
          "internalType": "bytes32",
          "name": "newAdminRole",
          "type": "bytes32"
        }
      ],
      "name": "RoleAdminChanged",
      "type": "event"
    },
    {
      "anonymous": false,
      "inputs": [
        {
          "indexed": true,
          "internalType": "bytes32",
          "name": "role",
          "type": "bytes32"
        },
        {
          "indexed": true,
          "internalType": "address",
          "name": "account",
          "type": "address"
        },
        {
          "indexed": true,
          "internalType": "address",
          "name": "assigner",
          "type": "address"
        }
      ],
      "name": "RoleAssigned",
      "type": "event"
    },
    {
      "anonymous": false,
      "inputs": [
        {
          "indexed": true,
          "internalType": "bytes32",
          "name": "role",
          "type": "bytes32"
        },
        {
          "indexed": true,
          "internalType": "address",
          "name": "account",
          "type": "address"
        },
        {
          "indexed": true,
          "internalType": "address",
          "name": "sender",
          "type": "address"
        }
      ],
      "name": "RoleGranted",
      "type": "event"
    },
    {
      "anonymous": false,
      "inputs": [
        {
          "indexed": true,
          "internalType": "bytes32",
          "name": "role",
          "type": "bytes32"
        },
        {
          "indexed": true,
          "internalType": "address",
          "name": "account",
          "type": "address"
        },
        {
          "indexed": true,
          "internalType": "address",
          "name": "sender",
          "type": "address"
        }
      ],
      "name": "RoleRevoked",
      "type": "event"
    },
    {
      "anonymous": false,
      "inputs": [
        {
          "indexed": true,
          "internalType": "address",
          "name": "from",
          "type": "address"
        },
        {
          "indexed": true,
          "internalType": "address",
          "name": "to",
          "type": "address"
        },
        {
          "indexed": true,
          "internalType": "uint256",
          "name": "tokenId",
          "type": "uint256"
        }
      ],
      "name": "Transfer",
      "type": "event"
    },
    {
      "anonymous": false,
      "inputs": [
        {
          "indexed": true,
          "internalType": "address",
          "name": "user",
          "type": "address"
        },
        {
          "indexed": false,
          "internalType": "uint256",
          "name": "amount",
          "type": "uint256"
        }
      ],
      "name": "Withdrawal",
      "type": "event"
    },
    {
      "inputs": [],
      "name": "ADMIN_ROLE",
      "outputs": [
        {
          "internalType": "bytes32",
          "name": "",
          "type": "bytes32"
        }
      ],
      "stateMutability": "view",
      "type": "function"
    },
    {
      "inputs": [],
      "name": "DEFAULT_ADMIN_ROLE",
      "outputs": [
        {
          "internalType": "bytes32",
          "name": "",
          "type": "bytes32"
        }
      ],
      "stateMutability": "view",
      "type": "function"
    },
    {
      "inputs": [],
      "name": "VERIFIER_ROLE",
      "outputs": [
        {
          "internalType": "bytes32",
          "name": "",
          "type": "bytes32"
        }
      ],
      "stateMutability": "view",
      "type": "function"
    },
    {
      "inputs": [
        {
          "internalType": "uint256",
          "name": "_tokenId",
          "type": "uint256"
        },
        {
          "internalType": "string",
          "name": "_content",
          "type": "string"
        },
        {
          "internalType": "uint8",
          "name": "_rating",
          "type": "uint8"
        }
      ],
      "name": "addReview",
      "outputs": [],
      "stateMutability": "nonpayable",
      "type": "function"
    },
    {
      "inputs": [
        {
          "internalType": "address",
          "name": "to",
          "type": "address"
        },
        {
          "internalType": "uint256",
          "name": "tokenId",
          "type": "uint256"
        }
      ],
      "name": "approve",
      "outputs": [],
      "stateMutability": "nonpayable",
      "type": "function"
    },
    {
      "inputs": [
        {
          "internalType": "bytes32",
          "name": "role",
          "type": "bytes32"
        },
        {
          "internalType": "address",
          "name": "account",
          "type": "address"
        }
      ],
      "name": "assignRole",
      "outputs": [],
      "stateMutability": "nonpayable",
      "type": "function"
    },
    {
      "inputs": [
        {
          "internalType": "address",
          "name": "owner",
          "type": "address"
        }
      ],
      "name": "balanceOf",
      "outputs": [
        {
          "internalType": "uint256",
          "name": "",
          "type": "uint256"
        }
      ],
      "stateMutability": "view",
      "type": "function"
    },
    {
      "inputs": [
        {
          "internalType": "uint256",
          "name": "_tokenId",
          "type": "uint256"
        }
      ],
      "name": "buyProperty",
      "outputs": [],
      "stateMutability": "payable",
      "type": "function"
    },
    {
      "inputs": [],
      "name": "commissionRate",
      "outputs": [
        {
          "internalType": "uint256",
          "name": "",
          "type": "uint256"
        }
      ],
      "stateMutability": "view",
      "type": "function"
    },
    {
      "inputs": [
        {
          "internalType": "uint256",
          "name": "_tokenId",
          "type": "uint256"
        }
      ],
      "name": "endRental",
      "outputs": [],
      "stateMutability": "nonpayable",
      "type": "function"
    },
    {
      "inputs": [
        {
          "internalType": "uint256",
          "name": "_offset",
          "type": "uint256"
        },
        {
          "internalType": "uint256",
          "name": "_limit",
          "type": "uint256"
        }
      ],
      "name": "getAllProperties",
      "outputs": [
        {
          "internalType": "uint256[]",
          "name": "",
          "type": "uint256[]"
        }
      ],
      "stateMutability": "view",
      "type": "function"
    },
    {
      "inputs": [
        {
          "internalType": "uint256",
          "name": "tokenId",
          "type": "uint256"
        }
      ],
      "name": "getApproved",
      "outputs": [
        {
          "internalType": "address",
          "name": "",
          "type": "address"
        }
      ],
      "stateMutability": "view",
      "type": "function"
    },
    {
      "inputs": [
        {
          "internalType": "address",
          "name": "_owner",
          "type": "address"
        }
      ],
      "name": "getPropertiesForAddress",
      "outputs": [
        {
          "internalType": "uint256[]",
          "name": "",
          "type": "uint256[]"
        }
      ],
      "stateMutability": "view",
      "type": "function"
    },
    {
      "inputs": [
        {
          "internalType": "uint256",
          "name": "_tokenId",
          "type": "uint256"
        }
      ],
      "name": "getPropertyInfo",
      "outputs": [
        {
          "internalType": "string",
          "name": "name",
          "type": "string"
        },
        {
          "internalType": "string",
          "name": "location",
          "type": "string"
        },
        {
          "internalType": "string",
          "name": "description",
          "type": "string"
        },
        {
          "internalType": "string",
          "name": "imageUrl",
          "type": "string"
        },
        {
          "internalType": "uint256",
          "name": "price",
          "type": "uint256"
        },
        {
          "internalType": "uint8",
          "name": "status",
          "type": "uint8"
        },
        {
          "internalType": "bool",
          "name": "isVerified",
          "type": "bool"
        },
        {
          "internalType": "uint256",
          "name": "likeCount",
          "type": "uint256"
        },
        {
          "internalType": "address",
          "name": "currentTenant",
          "type": "address"
        },
        {
          "internalType": "uint256",
          "name": "rentalEndDate",
          "type": "uint256"
        },
        {
          "internalType": "address",
          "name": "owner",
          "type": "address"
        }
      ],
      "stateMutability": "view",
      "type": "function"
    },
    {
      "inputs": [
        {
          "internalType": "uint256",
          "name": "_tokenId",
          "type": "uint256"
        }
      ],
      "name": "getPropertyReviewIds",
      "outputs": [
        {
          "internalType": "uint256[]",
          "name": "",
          "type": "uint256[]"
        }
      ],
      "stateMutability": "view",
      "type": "function"
    },
    {
      "inputs": [
        {
          "internalType": "uint256",
          "name": "reviewId",
          "type": "uint256"
        }
      ],
      "name": "getReviewDetails",
      "outputs": [
        {
          "internalType": "uint256",
          "name": "id",
          "type": "uint256"
        },
        {
          "internalType": "uint256",
          "name": "propertyId",
          "type": "uint256"
        },
        {
          "internalType": "address",
          "name": "reviewer",
          "type": "address"
        },
        {
          "internalType": "string",
          "name": "content",
          "type": "string"
        },
        {
          "internalType": "uint8",
          "name": "rating",
          "type": "uint8"
        }
      ],
      "stateMutability": "view",
      "type": "function"
    },
    {
      "inputs": [
        {
          "internalType": "bytes32",
          "name": "role",
          "type": "bytes32"
        }
      ],
      "name": "getRoleAdmin",
      "outputs": [
        {
          "internalType": "bytes32",
          "name": "",
          "type": "bytes32"
        }
      ],
      "stateMutability": "view",
      "type": "function"
    },
    {
      "inputs": [
        {
          "internalType": "bytes32",
          "name": "role",
          "type": "bytes32"
        },
        {
          "internalType": "address",
          "name": "account",
          "type": "address"
        }
      ],
      "name": "grantRole",
      "outputs": [],
      "stateMutability": "nonpayable",
      "type": "function"
    },
    {
      "inputs": [
        {
          "internalType": "bytes32",
          "name": "role",
          "type": "bytes32"
        },
        {
          "internalType": "address",
          "name": "account",
          "type": "address"
        }
      ],
      "name": "hasRole",
      "outputs": [
        {
          "internalType": "bool",
          "name": "",
          "type": "bool"
        }
      ],
      "stateMutability": "view",
      "type": "function"
    },
    {
      "inputs": [
        {
          "internalType": "address",
          "name": "owner",
          "type": "address"
        },
        {
          "internalType": "address",
          "name": "operator",
          "type": "address"
        }
      ],
      "name": "isApprovedForAll",
      "outputs": [
        {
          "internalType": "bool",
          "name": "",
          "type": "bool"
        }
      ],
      "stateMutability": "view",
      "type": "function"
    },
    {
      "inputs": [
        {
          "internalType": "string",
          "name": "_name",
          "type": "string"
        },
        {
          "internalType": "string",
          "name": "_location",
          "type": "string"
        },
        {
          "internalType": "string",
          "name": "_description",
          "type": "string"
        },
        {
          "internalType": "string",
          "name": "_imageUrl",
          "type": "string"
        }
      ],
      "name": "mintProperty",
      "outputs": [],
      "stateMutability": "nonpayable",
      "type": "function"
    },
    {
      "inputs": [],
      "name": "name",
      "outputs": [
        {
          "internalType": "string",
          "name": "",
          "type": "string"
        }
      ],
      "stateMutability": "view",
      "type": "function"
    },
    {
      "inputs": [
        {
          "internalType": "uint256",
          "name": "tokenId",
          "type": "uint256"
        }
      ],
      "name": "ownerOf",
      "outputs": [
        {
          "internalType": "address",
          "name": "",
          "type": "address"
        }
      ],
      "stateMutability": "view",
      "type": "function"
    },
    {
      "inputs": [
        {
          "internalType": "bytes32",
          "name": "role",
          "type": "bytes32"
        },
        {
          "internalType": "address",
          "name": "callerConfirmation",
          "type": "address"
        }
      ],
      "name": "renounceRole",
      "outputs": [],
      "stateMutability": "nonpayable",
      "type": "function"
    },
    {
      "inputs": [
        {
          "internalType": "uint256",
          "name": "_tokenId",
          "type": "uint256"
        }
      ],
      "name": "rentProperty",
      "outputs": [],
      "stateMutability": "payable",
      "type": "function"
    },
    {
      "inputs": [
        {
          "internalType": "bytes32",
          "name": "role",
          "type": "bytes32"
        },
        {
          "internalType": "address",
          "name": "account",
          "type": "address"
        }
      ],
      "name": "revokeRole",
      "outputs": [],
      "stateMutability": "nonpayable",
      "type": "function"
    },
    {
      "inputs": [
        {
          "internalType": "address",
          "name": "from",
          "type": "address"
        },
        {
          "internalType": "address",
          "name": "to",
          "type": "address"
        },
        {
          "internalType": "uint256",
          "name": "tokenId",
          "type": "uint256"
        }
      ],
      "name": "safeTransferFrom",
      "outputs": [],
      "stateMutability": "nonpayable",
      "type": "function"
    },
    {
      "inputs": [
        {
          "internalType": "address",
          "name": "from",
          "type": "address"
        },
        {
          "internalType": "address",
          "name": "to",
          "type": "address"
        },
        {
          "internalType": "uint256",
          "name": "tokenId",
          "type": "uint256"
        },
        {
          "internalType": "bytes",
          "name": "data",
          "type": "bytes"
        }
      ],
      "name": "safeTransferFrom",
      "outputs": [],
      "stateMutability": "nonpayable",
      "type": "function"
    },
    {
      "inputs": [
        {
          "internalType": "address",
          "name": "operator",
          "type": "address"
        },
        {
          "internalType": "bool",
          "name": "approved",
          "type": "bool"
        }
      ],
      "name": "setApprovalForAll",
      "outputs": [],
      "stateMutability": "nonpayable",
      "type": "function"
    },
    {
      "inputs": [
        {
          "internalType": "uint256",
          "name": "_newRate",
          "type": "uint256"
        }
      ],
      "name": "setCommissionRate",
      "outputs": [],
      "stateMutability": "nonpayable",
      "type": "function"
    },
    {
      "inputs": [
        {
          "internalType": "bytes4",
          "name": "interfaceId",
          "type": "bytes4"
        }
      ],
      "name": "supportsInterface",
      "outputs": [
        {
          "internalType": "bool",
          "name": "",
          "type": "bool"
        }
      ],
      "stateMutability": "view",
      "type": "function"
    },
    {
      "inputs": [],
      "name": "symbol",
      "outputs": [
        {
          "internalType": "string",
          "name": "",
          "type": "string"
        }
      ],
      "stateMutability": "view",
      "type": "function"
    },
    {
      "inputs": [
        {
          "internalType": "uint256",
          "name": "_tokenId",
          "type": "uint256"
        }
      ],
      "name": "toggleLike",
      "outputs": [],
      "stateMutability": "nonpayable",
      "type": "function"
    },
    {
      "inputs": [
        {
          "internalType": "uint256",
          "name": "index",
          "type": "uint256"
        }
      ],
      "name": "tokenByIndex",
      "outputs": [
        {
          "internalType": "uint256",
          "name": "",
          "type": "uint256"
        }
      ],
      "stateMutability": "view",
      "type": "function"
    },
    {
      "inputs": [
        {
          "internalType": "address",
          "name": "owner",
          "type": "address"
        },
        {
          "internalType": "uint256",
          "name": "index",
          "type": "uint256"
        }
      ],
      "name": "tokenOfOwnerByIndex",
      "outputs": [
        {
          "internalType": "uint256",
          "name": "",
          "type": "uint256"
        }
      ],
      "stateMutability": "view",
      "type": "function"
    },
    {
      "inputs": [
        {
          "internalType": "uint256",
          "name": "tokenId",
          "type": "uint256"
        }
      ],
      "name": "tokenURI",
      "outputs": [
        {
          "internalType": "string",
          "name": "",
          "type": "string"
        }
      ],
      "stateMutability": "view",
      "type": "function"
    },
    {
      "inputs": [],
      "name": "totalSupply",
      "outputs": [
        {
          "internalType": "uint256",
          "name": "",
          "type": "uint256"
        }
      ],
      "stateMutability": "view",
      "type": "function"
    },
    {
      "inputs": [
        {
          "internalType": "address",
          "name": "from",
          "type": "address"
        },
        {
          "internalType": "address",
          "name": "to",
          "type": "address"
        },
        {
          "internalType": "uint256",
          "name": "tokenId",
          "type": "uint256"
        }
      ],
      "name": "transferFrom",
      "outputs": [],
      "stateMutability": "nonpayable",
      "type": "function"
    },
    {
      "inputs": [
        {
          "internalType": "uint256",
          "name": "_tokenId",
          "type": "uint256"
        },
        {
          "internalType": "string",
          "name": "_name",
          "type": "string"
        },
        {
          "internalType": "string",
          "name": "_description",
          "type": "string"
        },
        {
          "internalType": "string",
          "name": "_imageUrl",
          "type": "string"
        },
        {
          "internalType": "string",
          "name": "_location",
          "type": "string"
        }
      ],
      "name": "updatePropertyDetails",
      "outputs": [],
      "stateMutability": "nonpayable",
      "type": "function"
    },
    {
      "inputs": [
        {
          "internalType": "uint256",
          "name": "_tokenId",
          "type": "uint256"
        },
        {
          "internalType": "uint8",
          "name": "_status",
          "type": "uint8"
        },
        {
          "internalType": "uint256",
          "name": "_price",
          "type": "uint256"
        },
        {
          "internalType": "uint256",
          "name": "_rentalEndDate",
          "type": "uint256"
        }
      ],
      "name": "updatePropertyStatus",
      "outputs": [],
      "stateMutability": "nonpayable",
      "type": "function"
    },
    {
      "inputs": [
        {
          "internalType": "address",
          "name": "",
          "type": "address"
        }
      ],
      "name": "userBalance",
      "outputs": [
        {
          "internalType": "uint256",
          "name": "",
          "type": "uint256"
        }
      ],
      "stateMutability": "view",
      "type": "function"
    },
    {
      "inputs": [
        {
          "internalType": "uint256",
          "name": "_tokenId",
          "type": "uint256"
        },
        {
          "internalType": "bool",
          "name": "_verified",
          "type": "bool"
        }
      ],
      "name": "verifyProperty",
      "outputs": [],
      "stateMutability": "nonpayable",
      "type": "function"
    },
    {
      "inputs": [],
      "name": "withdraw",
      "outputs": [],
      "stateMutability": "nonpayable",
      "type": "function"
    }
  ],
  "bytecode": "0x608060405260fa600d553480156200001657600080fd5b50604051620041ec380380620041ec8339810160408190526200003991620001c4565b6040518060400160405280600f81526020016e2932b0b622b9ba30ba32aa37b5b2b760891b8152506040518060400160405280600381526020016214915560ea1b81525081600090816200008e91906200029d565b5060016200009d82826200029d565b50620000af9150600090508262000111565b50620000dc7fa49807205ce4d355092ef5a8a18f56e8913cf4a201fbe287825b095693c217758262000111565b50620001097f0ce23c3e399818cfee81a7ab0880f714e53d7672b08df0fa62f2843416e1ea098262000111565b505062000369565b6000828152600a602090815260408083206001600160a01b038516845290915281205460ff16620001ba576000838152600a602090815260408083206001600160a01b03861684529091529020805460ff19166001179055620001713390565b6001600160a01b0316826001600160a01b0316847f2f8788117e7eff1d82e926ec794901d17c78024a50270940304540a733656f0d60405160405180910390a4506001620001be565b5060005b92915050565b600060208284031215620001d757600080fd5b81516001600160a01b0381168114620001ef57600080fd5b9392505050565b634e487b7160e01b600052604160045260246000fd5b600181811c908216806200022157607f821691505b6020821081036200024257634e487b7160e01b600052602260045260246000fd5b50919050565b601f82111562000298576000816000526020600020601f850160051c81016020861015620002735750805b601f850160051c820191505b8181101562000294578281556001016200027f565b5050505b505050565b81516001600160401b03811115620002b957620002b9620001f6565b620002d181620002ca84546200020c565b8462000248565b602080601f831160018114620003095760008415620002f05750858301515b600019600386901b1c1916600185901b17855562000294565b600085815260208120601f198616915b828110156200033a5788860151825594840194600190910190840162000319565b5085821015620003595787850151600019600388901b60f8161c191681555b5050505050600190811b01905550565b613e7380620003796000396000f3fe6080604052600436106102dc5760003560e01c80635ea1d6f811610184578063a217fddf116100d6578063c87b56dd1161008a578063e617de7b11610064578063e617de7b1461084b578063e7705db61461087c578063e985e9c5146108b057600080fd5b8063c87b56dd146107eb578063d3918b7a1461080b578063d547741f1461082b57600080fd5b8063ad3a2511116100bb578063ad3a25111461078b578063b88d4fde146107ab578063c5d28dfa146107cb57600080fd5b8063a217fddf14610756578063a22cb4651461076b57600080fd5b806375b238fc1161013857806397491d6f1161011257806397491d6f146107035780639bc48b34146107235780639d36ab6c1461074357600080fd5b806375b238fc1461067457806391d14854146106a857806395d89b41146106ee57600080fd5b806366d8ea4d1161016957806366d8ea4d146106215780636fa830a61461064157806370a082311461065457600080fd5b80635ea1d6f8146105eb5780636352211e1461060157600080fd5b806324fbc4ad1161023d57806336568abe116101f157806342842e0e116101cb57806342842e0e1461058b5780634f6ccce7146105ab57806354398d18146105cb57600080fd5b806336568abe1461051f5780633ccfd60b1461053f57806340f0a0551461055457600080fd5b80632f745c59116102225780632f745c59146104bf57806330a727b3146104df578063322bb116146104ff57600080fd5b806324fbc4ad1461047f5780632f2ff15d1461049f57600080fd5b8063095ea7b31161029457806319fac8fd1161027957806319fac8fd1461040f57806323b872dd1461042f578063248a9ca31461044f57600080fd5b8063095ea7b3146103d857806318160ddd146103fa57600080fd5b806306fdde03116102c557806306fdde0314610351578063081812fc1461037357806308f024cf146103ab57600080fd5b80630103c92b146102e157806301ffc9a714610321575b600080fd5b3480156102ed57600080fd5b5061030e6102fc3660046133d5565b60106020526000908152604090205481565b6040519081526020015b60405180910390f35b34801561032d57600080fd5b5061034161033c366004613406565b6108f9565b6040519015158152602001610318565b34801561035d57600080fd5b5061036661090a565b6040516103189190613473565b34801561037f57600080fd5b5061039361038e366004613486565b61099c565b6040516001600160a01b039091168152602001610318565b3480156103b757600080fd5b506103cb6103c63660046133d5565b6109c5565b604051610318919061349f565b3480156103e457600080fd5b506103f86103f33660046134e3565b610a5d565b005b34801561040657600080fd5b5060085461030e565b34801561041b57600080fd5b506103f861042a366004613486565b610a6c565b34801561043b57600080fd5b506103f861044a36600461350d565b610b29565b34801561045b57600080fd5b5061030e61046a366004613486565b6000908152600a602052604090206001015490565b34801561048b57600080fd5b506103f861049a366004613592565b610bb4565b3480156104ab57600080fd5b506103f86104ba366004613662565b610cd2565b3480156104cb57600080fd5b5061030e6104da3660046134e3565b610cf7565b3480156104eb57600080fd5b506103f86104fa366004613662565b610d5c565b34801561050b57600080fd5b506103f861051a36600461369e565b610dcd565b34801561052b57600080fd5b506103f861053a366004613662565b610ec2565b34801561054b57600080fd5b506103f8610f13565b34801561056057600080fd5b5061057461056f366004613486565b610fe4565b6040516103189b9a999897969594939291906136c1565b34801561059757600080fd5b506103f86105a636600461350d565b611319565b3480156105b757600080fd5b5061030e6105c6366004613486565b611334565b3480156105d757600080fd5b506103f86105e6366004613486565b61138d565b3480156105f757600080fd5b5061030e600d5481565b34801561060d57600080fd5b5061039361061c366004613486565b6114a7565b34801561062d57600080fd5b506103f861063c36600461377f565b6114b2565b6103f861064f366004613486565b61172d565b34801561066057600080fd5b5061030e61066f3660046133d5565b6119aa565b34801561068057600080fd5b5061030e7fa49807205ce4d355092ef5a8a18f56e8913cf4a201fbe287825b095693c2177581565b3480156106b457600080fd5b506103416106c3366004613662565b6000918252600a602090815260408084206001600160a01b0393909316845291905290205460ff1690565b3480156106fa57600080fd5b50610366611a0b565b34801561070f57600080fd5b506103f861071e366004613486565b611a1a565b34801561072f57600080fd5b506103cb61073e366004613486565b611b6c565b6103f8610751366004613486565b611c36565b34801561076257600080fd5b5061030e600081565b34801561077757600080fd5b506103f86107863660046137dd565b611ee3565b34801561079757600080fd5b506103f86107a6366004613807565b611eee565b3480156107b757600080fd5b506103f86107c6366004613858565b61207f565b3480156107d757600080fd5b506103f86107e6366004613934565b612097565b3480156107f757600080fd5b50610366610806366004613486565b612345565b34801561081757600080fd5b506103cb6108263660046139f8565b6123ba565b34801561083757600080fd5b506103f8610846366004613662565b6124a6565b34801561085757600080fd5b5061086b610866366004613486565b6124cb565b604051610318959493929190613a1a565b34801561088857600080fd5b5061030e7f0ce23c3e399818cfee81a7ab0880f714e53d7672b08df0fa62f2843416e1ea0981565b3480156108bc57600080fd5b506103416108cb366004613a5d565b6001600160a01b03918216600090815260056020908152604080832093909416825291909152205460ff1690565b6000610904826125fb565b92915050565b60606000805461091990613a87565b80601f016020809104026020016040519081016040528092919081815260200182805461094590613a87565b80156109925780601f1061096757610100808354040283529160200191610992565b820191906000526020600020905b81548152906001019060200180831161097557829003601f168201915b5050505050905090565b60006109a782612639565b506000828152600460205260409020546001600160a01b0316610904565b606060006109d2836119aa565b905060008167ffffffffffffffff8111156109ef576109ef613842565b604051908082528060200260200182016040528015610a18578160200160208202803683370190505b50905060005b82811015610a5557610a308582610cf7565b828281518110610a4257610a42613ac1565b6020908102919091010152600101610a1e565b509392505050565b610a68828233612672565b5050565b7fa49807205ce4d355092ef5a8a18f56e8913cf4a201fbe287825b095693c21775610a968161267f565b6103e8821115610aed5760405162461bcd60e51b815260206004820152601e60248201527f436f6d6d697373696f6e2072617465206d757374206265203c3d20313025000060448201526064015b60405180910390fd5b600d8290556040518281527f7944cc49dc8637e3cacb75b6261e778f93a87026e0357ae7c3b0e434324afa359060200160405180910390a15050565b6001600160a01b038216610b5357604051633250574960e11b815260006004820152602401610ae4565b6000610b6083833361268c565b9050836001600160a01b0316816001600160a01b031614610bae576040516364283d7b60e01b81526001600160a01b0380861660048301526024820184905282166044820152606401610ae4565b50505050565b6000898152600260205260409020546001600160a01b03163314610c0a5760405162461bcd60e51b815260206004820152600d60248201526c2737ba103a34329037bbb732b960991b6044820152606401610ae4565b6000898152600e602052604090208715610c2c5780610c2a898b83613b1f565b505b8515610c435760038101610c41878983613b1f565b505b8315610c5a5760048101610c58858783613b1f565b505b8115610c715760028101610c6f838583613b1f565b505b60068101546005820154600a8301546040805160ff90941684526020840192909252908201528a907f4b5db38f63b139c12e325a0d4dc328d738a6e27216ed66cc449f2351e4476bfa9060600160405180910390a250505050505050505050565b6000828152600a6020526040902060010154610ced8161267f565b610bae8383612761565b6000610d02836119aa565b8210610d335760405163295f44f760e21b81526001600160a01b038416600482015260248101839052604401610ae4565b506001600160a01b03919091166000908152600660209081526040808320938352929052205490565b7fa49807205ce4d355092ef5a8a18f56e8913cf4a201fbe287825b095693c21775610d868161267f565b610d908383610cd2565b60405133906001600160a01b0384169085907fd3c3c74ac78e01f4affcaa9191550c84a2b0b79d8f0dfcee7645eda13a90c6c790600090a4505050565b7f0ce23c3e399818cfee81a7ab0880f714e53d7672b08df0fa62f2843416e1ea09610df78161267f565b6000838152600260205260409020546001600160a01b0316610e5b5760405162461bcd60e51b815260206004820152601760248201527f50726f706572747920646f6573206e6f742065786973740000000000000000006044820152606401610ae4565b6000838152600e60205260409081902060060180548415156101000261ff00199091161790555183907fafdcc517a26e633f535aa9cebec29f4281ab2ffa922a475b12fd1297ad765bc890610eb590851515815260200190565b60405180910390a2505050565b6001600160a01b0381163314610f04576040517f6697b23200000000000000000000000000000000000000000000000000000000815260040160405180910390fd5b610f0e828261280f565b505050565b3360009081526010602052604090205480610f705760405162461bcd60e51b815260206004820152601660248201527f4e6f2062616c616e636520746f207769746864726177000000000000000000006044820152606401610ae4565b336000818152601060205260408082208290555183156108fc0291849190818181858888f19350505050158015610fab573d6000803e3d6000fd5b5060405181815233907f7fcf532c15f0a6db0bd6d0e038bea71d30d808c7d98cb3bf7268a95bf5081b659060200160405180910390a250565b60608060608060008060008060008060006110168c6000908152600260205260409020546001600160a01b0316151590565b6110625760405162461bcd60e51b815260206004820152601760248201527f50726f706572747920646f6573206e6f742065786973740000000000000000006044820152606401610ae4565b60008c8152600e602052604090206005810154600682015460088301546009840154600a8501546001860154865487966002880196600389019660048a0196929560ff80841696610100909404169491936001600160a01b039081169391929116908b906110cf90613a87565b80601f01602080910402602001604051908101604052809291908181526020018280546110fb90613a87565b80156111485780601f1061111d57610100808354040283529160200191611148565b820191906000526020600020905b81548152906001019060200180831161112b57829003601f168201915b50505050509a5089805461115b90613a87565b80601f016020809104026020016040519081016040528092919081815260200182805461118790613a87565b80156111d45780601f106111a9576101008083540402835291602001916111d4565b820191906000526020600020905b8154815290600101906020018083116111b757829003601f168201915b505050505099508880546111e790613a87565b80601f016020809104026020016040519081016040528092919081815260200182805461121390613a87565b80156112605780601f1061123557610100808354040283529160200191611260565b820191906000526020600020905b81548152906001019060200180831161124357829003601f168201915b5050505050985087805461127390613a87565b80601f016020809104026020016040519081016040528092919081815260200182805461129f90613a87565b80156112ec5780601f106112c1576101008083540402835291602001916112ec565b820191906000526020600020905b8154815290600101906020018083116112cf57829003601f168201915b505050505097509b509b509b509b509b509b509b509b509b509b509b505091939597999b90929496989a50565b610f0e8383836040518060200160405280600081525061207f565b600061133f60085490565b82106113685760405163295f44f760e21b81526000600482015260248101839052604401610ae4565b6008828154811061137b5761137b613ac1565b90600052602060002001549050919050565b6000818152600260205260409020546001600160a01b03166113f15760405162461bcd60e51b815260206004820152601760248201527f50726f706572747920646f6573206e6f742065786973740000000000000000006044820152606401610ae4565b60008181526011602090815260408083203384529091529020805460ff8116801560ff199092168217909255611448576000828152600e6020526040812060080180549161143e83613bf5565b919050555061146b565b6000828152600e6020526040812060080180549161146583613c0c565b91905055505b60405181158152339083907fab8b57bd6cd248690fcdc45cdbc282c6e483e720eb6cd518ad29420c379b9d5c9060200160405180910390a35050565b600061090482612639565b6000848152600260205260409020546001600160a01b03166115165760405162461bcd60e51b815260206004820152601760248201527f50726f706572747920646f6573206e6f742065786973740000000000000000006044820152606401610ae4565b6000848152600e6020526040902060010154336001600160a01b03909116036115815760405162461bcd60e51b815260206004820152601f60248201527f43616e6e6f742072657669657720796f7572206f776e2070726f7065727479006044820152606401610ae4565b60018160ff1610158015611599575060058160ff1611155b6115e55760405162461bcd60e51b815260206004820152600e60248201527f496e76616c696420726174696e670000000000000000000000000000000000006044820152606401610ae4565b600c8054600091826115f683613c0c565b9190505590506040518060a00160405280828152602001868152602001336001600160a01b0316815260200185858080601f016020809104026020016040519081016040528093929190818152602001838380828437600092018290525093855250505060ff8516602092830152838152600f8252604090819020835181559183015160018301558201516002820180546001600160a01b0319166001600160a01b03909216919091179055606082015160038201906116b69082613c25565b50608091909101516004909101805460ff191660ff9092169190911790556000858152600e602090815260408083206007018054600181018255908452918320909101839055513391879184917fa2a1dee4425c37116291ab4d233678a915201b947533b0d540def4d8fca8d28f91a45050505050565b6000818152600e60205260409020600681015460ff16600114801561175b57506006810154610100900460ff165b6117a75760405162461bcd60e51b815260206004820152601c60248201527f4e6f7420666f722073616c65206f72206e6f74207665726966696564000000006044820152606401610ae4565b806005015434101580156117c8575060018101546001600160a01b03163314155b61183a5760405162461bcd60e51b815260206004820152602360248201527f496e73756666696369656e742066756e6473206f722073656c662d707572636860448201527f61736500000000000000000000000000000000000000000000000000000000006064820152608401610ae4565b6001810154600d5460058301546001600160a01b0390921691600091612710916118649190613ce5565b61186e9190613cfc565b905060008184600501546118829190613d1e565b6001600160a01b0384166000908152601060205260408120805492935083929091906118af908490613d31565b909155505030600090815260106020526040812080548492906118d3908490613d31565b90915550506001840180546001600160a01b0319163390811790915560068501805460ff1916905561190790849087612896565b60008460050154346119199190613d1e565b9050801561195057604051339082156108fc029083906000818181858888f1935050505015801561194e573d6000803e3d6000fd5b505b336001600160a01b0316846001600160a01b0316877fddd64180d9701c7ede08673ac8106484ff983a472929330d4fbde4e35d65cb06886005015460405161199a91815260200190565b60405180910390a4505050505050565b60006001600160a01b0382166119ef576040517f89c62b6400000000000000000000000000000000000000000000000000000000815260006004820152602401610ae4565b506001600160a01b031660009081526003602052604090205490565b60606001805461091990613a87565b6000818152600e6020526040902060018101546001600160a01b0316331480611a4f575060098101546001600160a01b031633145b611a9b5760405162461bcd60e51b815260206004820152600e60248201527f4e6f7420617574686f72697a65640000000000000000000000000000000000006044820152606401610ae4565b60098101546001600160a01b031615801590611abb575080600a01544210155b611b075760405162461bcd60e51b815260206004820152601460248201527f496e76616c69642072656e74616c2073746174650000000000000000000000006044820152606401610ae4565b6009810180546001600160a01b031981169091556000600a830181905560068301805460ff191690556040516001600160a01b0390921691829185917ff9bbd47d9659083aa5b016ffd346aca413549aace523513f610200aeed1e1dd49190a3505050565b6000818152600260205260409020546060906001600160a01b0316611bd35760405162461bcd60e51b815260206004820152601760248201527f50726f706572747920646f6573206e6f742065786973740000000000000000006044820152606401610ae4565b6000828152600e602090815260409182902060070180548351818402810184019094528084529091830182828015611c2a57602002820191906000526020600020905b815481526020019060010190808311611c16575b50505050509050919050565b6000818152600e60205260409020600681015460ff166002148015611c6457506006810154610100900460ff165b611cb05760405162461bcd60e51b815260206004820152601c60248201527f4e6f7420666f722072656e74206f72206e6f74207665726966696564000000006044820152606401610ae4565b60098101546001600160a01b0316158015611ccf575080600501543410155b8015611ce8575060018101546001600160a01b03163314155b611d345760405162461bcd60e51b815260206004820152601960248201527f496e76616c69642072656e74616c20636f6e646974696f6e73000000000000006044820152606401610ae4565b80600a01544210611d875760405162461bcd60e51b815260206004820152601760248201527f52656e74616c20706572696f642068617320656e6465640000000000000000006044820152606401610ae4565b6001810154600d5460058301546001600160a01b039092169160009161271091611db19190613ce5565b611dbb9190613cfc565b90506000818460050154611dcf9190613d1e565b6001600160a01b038416600090815260106020526040812080549293508392909190611dfc908490613d31565b90915550503060009081526010602052604081208054849290611e20908490613d31565b90915550506009840180546001600160a01b031916331790556005840154600090611e4b9034613d1e565b90508015611e8257604051339082156108fc029083906000818181858888f19350505050158015611e80573d6000803e3d6000fd5b505b336001600160a01b0316867f83f582c38246e10118fca894a9512cb07f6c10aec67f1808c8ddd5db8810e5a987600501544289600a0154611ec39190613d1e565b6040805192835260208301919091520160405180910390a3505050505050565b610a68338383612946565b6000848152600260205260409020546001600160a01b03163314611f445760405162461bcd60e51b815260206004820152600d60248201526c2737ba103a34329037bbb732b960991b6044820152606401610ae4565b6000848152600e602052604090206006810154610100900460ff16611fab5760405162461bcd60e51b815260206004820152601560248201527f50726f7065727479206e6f7420766572696669656400000000000000000000006044820152606401610ae4565b60028460ff161115611fff5760405162461bcd60e51b815260206004820152600e60248201527f496e76616c6964207374617475730000000000000000000000000000000000006044820152606401610ae4565b60068101805460ff191660ff86169081179091556005820184905560021461202857600061202a565b815b600a82018190556040805160ff87168152602081018690529081019190915285907f4b5db38f63b139c12e325a0d4dc328d738a6e27216ed66cc449f2351e4476bfa9060600160405180910390a25050505050565b61208a848484610b29565b610bae33858585856129fe565b600b8054600091826120a883613c0c565b90915550604080516101a06020601f8d01819004028201810190925261018081018b81529293509182918c908c90819085018382808284376000920191909152505050908252503360208083019190915260408051601f8b0183900483028101830182528a8152920191908a908a9081908401838280828437600092019190915250505090825250604080516020601f890181900481028201810190925287815291810191908890889081908401838280828437600092019190915250505090825250604080516020601f8701819004810282018101909252858152918101919086908690819084018382808284376000920182905250938552505050602080830182905260408084018390526060840183905280518381528083018252608085015260a0840183905260c0840183905260e0909301829052848252600e905220815181906121f79082613c25565b5060208201516001820180546001600160a01b0319166001600160a01b03909216919091179055604082015160028201906122329082613c25565b50606082015160038201906122479082613c25565b506080820151600482019061225c9082613c25565b5060a0820151600582015560c082015160068201805460e085015160ff90931661ffff1990911617610100921515830217905582015180516122a8916007840191602090910190613359565b5061012082015160088201556101408201516009820180546001600160a01b0319166001600160a01b0390921691909117905561016090910151600a909101556122f23382612b29565b336001600160a01b0316817f7365d990f6bbe4f0cfddd3324a5ab7681ed482208d3dc5968a8ea3adf0aa19b38b8b8b8b6040516123329493929190613d6d565b60405180910390a3505050505050505050565b606061235082612639565b50600061236860408051602081019091526000815290565b9050600081511161238857604051806020016040528060008152506123b3565b8061239284612b43565b6040516020016123a3929190613d9f565b6040516020818303038152906040525b9392505050565b606060006123c760085490565b90508084106123e6575050604080516000815260208101909152610904565b6000816123f38587613d31565b11612407576124028486613d31565b612409565b815b905060006124178683613d1e565b67ffffffffffffffff81111561242f5761242f613842565b604051908082528060200260200182016040528015612458578160200160208202803683370190505b509050855b8281101561249c5761246e81611334565b826124798984613d1e565b8151811061248957612489613ac1565b602090810291909101015260010161245d565b5095945050505050565b6000828152600a60205260409020600101546124c18161267f565b610bae838361280f565b600080600060606000600c5486106125255760405162461bcd60e51b815260206004820152601560248201527f52657669657720646f6573206e6f7420657869737400000000000000000000006044820152606401610ae4565b6000868152600f6020526040902080546001820154600283015460048401546003850180546001600160a01b0390931692909160ff1690829061256790613a87565b80601f016020809104026020016040519081016040528092919081815260200182805461259390613a87565b80156125e05780601f106125b5576101008083540402835291602001916125e0565b820191906000526020600020905b8154815290600101906020018083116125c357829003601f168201915b50505050509150955095509550955095505091939590929450565b60006001600160e01b031982167f7965db0b000000000000000000000000000000000000000000000000000000001480610904575061090482612be3565b6000818152600260205260408120546001600160a01b03168061090457604051637e27328960e01b815260048101849052602401610ae4565b610f0e8383836001612c21565b6126898133612d5f565b50565b60008061269a858585612dcd565b90506001600160a01b0381166126f7576126f284600880546000838152600960205260408120829055600182018355919091527ff3f7a9fe364faab93b216da50a3214154f22a0a2b415b23a84c8169e8b636ee30155565b61271a565b846001600160a01b0316816001600160a01b03161461271a5761271a8185612ec6565b6001600160a01b0385166127365761273184612f47565b612759565b846001600160a01b0316816001600160a01b031614612759576127598585612ff6565b949350505050565b6000828152600a602090815260408083206001600160a01b038516845290915281205460ff16612807576000838152600a602090815260408083206001600160a01b03861684529091529020805460ff191660011790556127bf3390565b6001600160a01b0316826001600160a01b0316847f2f8788117e7eff1d82e926ec794901d17c78024a50270940304540a733656f0d60405160405180910390a4506001610904565b506000610904565b6000828152600a602090815260408083206001600160a01b038516845290915281205460ff1615612807576000838152600a602090815260408083206001600160a01b0386168085529252808320805460ff1916905551339286917ff6391f5c32d9c69d2a47ea670b442974b53935d1edc7fd64eb21e047a839171b9190a4506001610904565b6001600160a01b0382166128c057604051633250574960e11b815260006004820152602401610ae4565b60006128ce8383600061268c565b90506001600160a01b0381166128fa57604051637e27328960e01b815260048101839052602401610ae4565b836001600160a01b0316816001600160a01b031614610bae576040516364283d7b60e01b81526001600160a01b0380861660048301526024820184905282166044820152606401610ae4565b6001600160a01b038216612991576040517f5b08ba180000000000000000000000000000000000000000000000000000000081526001600160a01b0383166004820152602401610ae4565b6001600160a01b03838116600081815260056020908152604080832094871680845294825291829020805460ff191686151590811790915591519182527f17307eab39ab6107e8899845ad3d59bd9653f200f220920489ca2b5937696c31910160405180910390a3505050565b6001600160a01b0383163b15612b2257604051630a85bd0160e11b81526001600160a01b0384169063150b7a0290612a40908890889087908790600401613dce565b6020604051808303816000875af1925050508015612a7b575060408051601f3d908101601f19168201909252612a7891810190613e0a565b60015b612ae4573d808015612aa9576040519150601f19603f3d011682016040523d82523d6000602084013e612aae565b606091505b508051600003612adc57604051633250574960e11b81526001600160a01b0385166004820152602401610ae4565b805181602001fd5b6001600160e01b03198116630a85bd0160e11b14612b2057604051633250574960e11b81526001600160a01b0385166004820152602401610ae4565b505b5050505050565b610a68828260405180602001604052806000815250613046565b60606000612b508361305e565b600101905060008167ffffffffffffffff811115612b7057612b70613842565b6040519080825280601f01601f191660200182016040528015612b9a576020820181803683370190505b5090508181016020015b600019017f3031323334353637383961626364656600000000000000000000000000000000600a86061a8153600a8504945084612ba457509392505050565b60006001600160e01b031982167f780e9d63000000000000000000000000000000000000000000000000000000001480610904575061090482613140565b8080612c3557506001600160a01b03821615155b15612d2f576000612c4584612639565b90506001600160a01b03831615801590612c715750826001600160a01b0316816001600160a01b031614155b8015612ca357506001600160a01b0380821660009081526005602090815260408083209387168352929052205460ff16155b15612ce5576040517fa9fbf51f0000000000000000000000000000000000000000000000000000000081526001600160a01b0384166004820152602401610ae4565b8115612d2d5783856001600160a01b0316826001600160a01b03167f8c5be1e5ebec7d5bd14f71427d1e84f3dd0314c0f7b2291e5b200ac8c7c3b92560405160405180910390a45b505b5050600090815260046020526040902080546001600160a01b0319166001600160a01b0392909216919091179055565b6000828152600a602090815260408083206001600160a01b038516845290915290205460ff16610a68576040517fe2517d3f0000000000000000000000000000000000000000000000000000000081526001600160a01b038216600482015260248101839052604401610ae4565b6000828152600260205260408120546001600160a01b0390811690831615612dfa57612dfa8184866131db565b6001600160a01b03811615612e3857612e17600085600080612c21565b6001600160a01b038116600090815260036020526040902080546000190190555b6001600160a01b03851615612e67576001600160a01b0385166000908152600360205260409020805460010190555b60008481526002602052604080822080546001600160a01b0319166001600160a01b0389811691821790925591518793918516917fddf252ad1be2c89b69c2b068fc378daa952ba7f163c4a11628f55a4df523b3ef91a4949350505050565b6000612ed1836119aa565b6000838152600760209081526040808320546001600160a01b0388168452600690925290912091925090818314612f2857600083815260208281526040808320548584528184208190558352600790915290208290555b6000938452600760209081526040808620869055938552525081205550565b600854600090612f5990600190613d1e565b60008381526009602052604081205460088054939450909284908110612f8157612f81613ac1565b906000526020600020015490508060088381548110612fa257612fa2613ac1565b6000918252602080832090910192909255828152600990915260408082208490558582528120556008805480612fda57612fda613e27565b6001900381819060005260206000200160009055905550505050565b60006001613003846119aa565b61300d9190613d1e565b6001600160a01b039093166000908152600660209081526040808320868452825280832085905593825260079052919091209190915550565b6130508383613258565b610f0e3360008585856129fe565b6000807a184f03e93ff9f4daa797ed6e38ed64bf6a1f01000000000000000083106130a7577a184f03e93ff9f4daa797ed6e38ed64bf6a1f010000000000000000830492506040015b6d04ee2d6d415b85acef810000000083106130d3576d04ee2d6d415b85acef8100000000830492506020015b662386f26fc1000083106130f157662386f26fc10000830492506010015b6305f5e1008310613109576305f5e100830492506008015b612710831061311d57612710830492506004015b6064831061312f576064830492506002015b600a83106109045760010192915050565b60006001600160e01b031982167f80ac58cd0000000000000000000000000000000000000000000000000000000014806131a357506001600160e01b031982167f5b5e139f00000000000000000000000000000000000000000000000000000000145b8061090457507f01ffc9a7000000000000000000000000000000000000000000000000000000006001600160e01b0319831614610904565b6131e68383836132d6565b610f0e576001600160a01b03831661321457604051637e27328960e01b815260048101829052602401610ae4565b6040517f177e802f0000000000000000000000000000000000000000000000000000000081526001600160a01b038316600482015260248101829052604401610ae4565b6001600160a01b03821661328257604051633250574960e11b815260006004820152602401610ae4565b60006132908383600061268c565b90506001600160a01b03811615610f0e576040517f73c6ac6e00000000000000000000000000000000000000000000000000000000815260006004820152602401610ae4565b60006001600160a01b038316158015906127595750826001600160a01b0316846001600160a01b0316148061333057506001600160a01b0380851660009081526005602090815260408083209387168352929052205460ff165b806127595750506000908152600460205260409020546001600160a01b03908116911614919050565b828054828255906000526020600020908101928215613394579160200282015b82811115613394578251825591602001919060010190613379565b506133a09291506133a4565b5090565b5b808211156133a057600081556001016133a5565b80356001600160a01b03811681146133d057600080fd5b919050565b6000602082840312156133e757600080fd5b6123b3826133b9565b6001600160e01b03198116811461268957600080fd5b60006020828403121561341857600080fd5b81356123b3816133f0565b60005b8381101561343e578181015183820152602001613426565b50506000910152565b6000815180845261345f816020860160208601613423565b601f01601f19169290920160200192915050565b6020815260006123b36020830184613447565b60006020828403121561349857600080fd5b5035919050565b6020808252825182820181905260009190848201906040850190845b818110156134d7578351835292840192918401916001016134bb565b50909695505050505050565b600080604083850312156134f657600080fd5b6134ff836133b9565b946020939093013593505050565b60008060006060848603121561352257600080fd5b61352b846133b9565b9250613539602085016133b9565b9150604084013590509250925092565b60008083601f84011261355b57600080fd5b50813567ffffffffffffffff81111561357357600080fd5b60208301915083602082850101111561358b57600080fd5b9250929050565b600080600080600080600080600060a08a8c0312156135b057600080fd5b8935985060208a013567ffffffffffffffff808211156135cf57600080fd5b6135db8d838e01613549565b909a50985060408c01359150808211156135f457600080fd5b6136008d838e01613549565b909850965060608c013591508082111561361957600080fd5b6136258d838e01613549565b909650945060808c013591508082111561363e57600080fd5b5061364b8c828d01613549565b915080935050809150509295985092959850929598565b6000806040838503121561367557600080fd5b82359150613685602084016133b9565b90509250929050565b803580151581146133d057600080fd5b600080604083850312156136b157600080fd5b823591506136856020840161368e565b60006101608083526136d58184018f613447565b905082810360208401526136e9818e613447565b905082810360408401526136fd818d613447565b90508281036060840152613711818c613447565b91505088608083015260ff881660a083015286151560c08301528560e08301526001600160a01b0385166101008301528361012083015261375e6101408301846001600160a01b03169052565b9c9b505050505050505050505050565b803560ff811681146133d057600080fd5b6000806000806060858703121561379557600080fd5b84359350602085013567ffffffffffffffff8111156137b357600080fd5b6137bf87828801613549565b90945092506137d290506040860161376e565b905092959194509250565b600080604083850312156137f057600080fd5b6137f9836133b9565b91506136856020840161368e565b6000806000806080858703121561381d57600080fd5b8435935061382d6020860161376e565b93969395505050506040820135916060013590565b634e487b7160e01b600052604160045260246000fd5b6000806000806080858703121561386e57600080fd5b613877856133b9565b9350613885602086016133b9565b925060408501359150606085013567ffffffffffffffff808211156138a957600080fd5b818701915087601f8301126138bd57600080fd5b8135818111156138cf576138cf613842565b604051601f8201601f19908116603f011681019083821181831017156138f7576138f7613842565b816040528281528a602084870101111561391057600080fd5b82602086016020830137600060208483010152809550505050505092959194509250565b6000806000806000806000806080898b03121561395057600080fd5b883567ffffffffffffffff8082111561396857600080fd5b6139748c838d01613549565b909a50985060208b013591508082111561398d57600080fd5b6139998c838d01613549565b909850965060408b01359150808211156139b257600080fd5b6139be8c838d01613549565b909650945060608b01359150808211156139d757600080fd5b506139e48b828c01613549565b999c989b5096995094979396929594505050565b60008060408385031215613a0b57600080fd5b50508035926020909101359150565b8581528460208201526001600160a01b038416604082015260a060608201526000613a4860a0830185613447565b905060ff831660808301529695505050505050565b60008060408385031215613a7057600080fd5b613a79836133b9565b9150613685602084016133b9565b600181811c90821680613a9b57607f821691505b602082108103613abb57634e487b7160e01b600052602260045260246000fd5b50919050565b634e487b7160e01b600052603260045260246000fd5b601f821115610f0e576000816000526020600020601f850160051c81016020861015613b005750805b601f850160051c820191505b81811015612b2057828155600101613b0c565b67ffffffffffffffff831115613b3757613b37613842565b613b4b83613b458354613a87565b83613ad7565b6000601f841160018114613b7f5760008515613b675750838201355b600019600387901b1c1916600186901b178355612b22565b600083815260209020601f19861690835b82811015613bb05786850135825560209485019460019092019101613b90565b5086821015613bcd5760001960f88860031b161c19848701351681555b505060018560011b0183555050505050565b634e487b7160e01b600052601160045260246000fd5b600081613c0457613c04613bdf565b506000190190565b600060018201613c1e57613c1e613bdf565b5060010190565b815167ffffffffffffffff811115613c3f57613c3f613842565b613c5381613c4d8454613a87565b84613ad7565b602080601f831160018114613c885760008415613c705750858301515b600019600386901b1c1916600185901b178555612b20565b600085815260208120601f198616915b82811015613cb757888601518255948401946001909101908401613c98565b5085821015613cd55787850151600019600388901b60f8161c191681555b5050505050600190811b01905550565b808202811582820484141761090457610904613bdf565b600082613d1957634e487b7160e01b600052601260045260246000fd5b500490565b8181038181111561090457610904613bdf565b8082018082111561090457610904613bdf565b81835281816020850137506000828201602090810191909152601f909101601f19169091010190565b604081526000613d81604083018688613d44565b8281036020840152613d94818587613d44565b979650505050505050565b60008351613db1818460208801613423565b835190830190613dc5818360208801613423565b01949350505050565b60006001600160a01b03808716835280861660208401525083604083015260806060830152613e006080830184613447565b9695505050505050565b600060208284031215613e1c57600080fd5b81516123b3816133f0565b634e487b7160e01b600052603160045260246000fdfea2646970667358221220555276cd37b94af8ceb70bb62df674bae28c0a8bb7429e276ef35ce8a956921b64736f6c63430008160033",
  "linkReferences": {},
  "deployedLinkReferences": {}
}